S0140000536368726974746D6F746F722E73726563FE
S11300000C9434000C9451000C9451000C94510045
S11300100C9451000C9451000C9451000C94530016
S11300200C9451000C9451000C9451000C94510008
S11300300C9451000C9451000C9451000C945100F8
S11300400C9451000C9451000C9451000C945100E8
S11300500C9451000C9451000C9451000C945100D8
S11300600C9451000C94510011241FBECFEFD8E022
S1130070DEBFCDBF11E0A0E0B1E0EEE6F9E002C0E2
S113008005900D92A830B107D9F721E0A8E0B1E0BE
S113009001C01D92AA30B207E1F70E940B010C9433
S11300A0B5040C9400001F920F920FB60F92112406
S11300B02F933F934F935F936F937F938F939F936C
S11300C0AF93BF93EF93FF936EE570EA84E29CE3F2
S11300D00E948F01FF91EF91BF91AF919F918F91FA
S11300E07F916F915F914F913F912F910F900FBE30
S11300F00F901F90189582E08093B00097E0909342
S1130100B1009CE99093B30080937000089584B18A
S1130110826284B98AB184648AB92D9A5E980E94F5
S11301207B000895882311F05A9808955A9A0895E7
S113013014BC15BC5E980895877092E494BD85BD87
S11301400895CF92DF92EF92FF92611571058105B8
S1130150910509F459C00E9435039B01AC0160E08C
S11301607BE187EB9AE40E9494020E9459046B019C
S11301707C0120E03FEF4FE757E40E94E7031816A5
S1130180A4F0C701B6010E9406039B016F3F7105ED
S113019031F128F13695279536952795369527958B
S11301A02F3F310509F018F420C02FEF3FE13695B9
S11301B0279536952795369527952F3F3105B9F024
S11301C0B0F036952795369527952F3F310589F060
S11301D080F0369527953695279585E001C081E016
S11301E02F3F310509F050F405C082E003C083E0DD
S11301F001C084E027BD0E949C0008C08FEF87BD2A
S113020085E00E949C0002C00E949800FF90EF903D
S1130210DF90CF900895CF93DF93CDB7DEB7679784
S11302200FB6F894DEBF0FBECDBF0E948700CE018B
S113023001960E944C0161E0CE0101960E943101B9
S113024040E050E060EA70E4CE0101960E942A0189
S11302507894FFCFFC01478350876187728781E0E0
S11302600895662359F0FC012681211111C021E073
S1130270268381E00E94920081E00895FC0126819A
S1130280213041F4168280E00E94920081E00895BA
S113029081E0089580E00895FC0184E091E0918379
S11302A08083F0930901E093080188EC90E0938344
S11302B0828380E290E095838483168280E090E0DC
S11302C0A0EAB0E48787908BA18BB28B838B948B4D
S11302D0A58BB68B13861486158616861782108610
S11302E0118612860895CF92DF92EF92FF926A01EF
S11302F07B01FC0124813581A281B3810E94A60483
S11303000E943503A70196010E94EC030E94060394
S11303100E94A100FF90EF90DF90CF9008954F923C
S11303205F926F927F928F929F92AF92BF92CF9281
S1130330DF92EF92FF92CF93DF93CDB7DEB72A9788
S11303400FB6F894DEBF0FBECDBF6B017C01809168
S11303500801909109019A878987FC0127853089D2
S113036041895289C701B6010E94EC036D837E83E3
S11303708F839887E985FA85238934894589568945
S1130380C701B6010E94EC0369837A838B839C8343
S1130390E985FA85C780D084E184F2844384548457
S11303A065847684A3019201C701B6010E942202EA
S11303B04B015C019B01AC016D817E818F8198852D
S11303C00E948F02882354F4A30192016D817E81DF
S11303D08F8198850E9423026B017C01A501940101
S11303E069817A818B819C810E94E703181654F4F9
S11303F029813A814B815C81C301B2010E942202AE
S11304006B017C01E985FA85C386D486E586F68688
S1130410B701A601CF010E9473012A960FB6F89482
S1130420DEBF0FBECDBFDF91CF91FF90EF90DF9085
S1130430CF90BF90AF909F908F907F906F905F9080
S11304404F9008955058BB27AA270E943A020C9453
S1130450AD030E949F0338F00E94A60320F039F4F4
S11304609F3F19F426F40C949C030EF4E095E7FBEB
S11304700C949603E92F0E94BE0358F3BA1762073F
S113048073078407950720F079F4A6F50C94E0032C
S11304900EF4E0950B2EBA2FA02D0B01B90190019B
S11304A00C01CA01A0011124FF27591B99F0593FDF
S11304B050F4503E68F11A16F040A22F232F342F27
S11304C04427585FF3CF469537952795A795F04075
S11304D05395C9F77EF41F16BA0B620B730B840B8A
S11304E0BAF09150A1F0FF0FBB1F661F771F881F42
S11304F0C2F70EC0BA0F621F731F841F48F487959A
S113050077956795B795F7959E3F08F0B0CF93958B
S1130510880F08F09927EE0F9795879508950E9404
S1130520720308F481E008950E94A8020C94AD03BC
S11305300E94A60358F00E949F0340F029F45F3FF5
S113054029F00C94960351110C94E1030C949C0330
S11305500E94BE0368F39923B1F3552391F3951BCD
S1130560550BBB27AA2762177307840738F09F5FD0
S11305705F4F220F331F441FAA1FA9F335D00E2E3D
S11305803AF0E0E832D091505040E695001CCAF7AA
S11305902BD0FE2F29D0660F771F881FBB1F26176D
S11305A037074807AB07B0E809F0BB0B802DBF0144
S11305B0FF2793585F4F3AF09E3F510578F00C9413
S11305C096030C94E1035F3FE4F3983ED4F38695DD
S11305D077956795B795F7959F5FC9F7880F911D34
S11305E09695879597F90895E1E0660F771F881F20
S11305F0BB1F621773078407BA0720F0621B730BD3
S1130600840BBA0BEE1F88F7E09508950E94C60389
S113061088F09F5798F0B92F9927B751B0F0E1F0BF
S1130620660F771F881F991F1AF0BA95C9F714C06F
S1130630B13091F00E94E003B1E008950C94E0031E
S1130640672F782F8827B85F39F0B93FCCF38695A8
S113065077956795B395D9F73EF490958095709505
S113066061957F4F8F4F9F4F0895E89409C097FB82
S11306703EF490958095709561957F4F8F4F9F4F75
S11306809923A9F0F92F96E9BB279395F6958795B9
S113069077956795B795F111F8CFFAF4BB0F11F47C
S11306A060FF1BC06F5F7F4F8F4F9F4F16C0882323
S11306B011F096E911C0772321F09EE8872F762F59
S11306C005C0662371F096E8862F70E060E02AF09A
S11306D09A95660F771F881FDAF7880F9695879586
S11306E097F90895990F0008550FAA0BE0E8FEEF5B
S11306F016161706E807F907C0F012161306E407E2
S1130700F50798F0621B730B840B950B39F40A26DA
S113071061F0232B242B252B21F408950A2609F4B8
S1130720A140A6958FEF811D811D089597F99F67BC
S113073080E870E060E008959FEF80EC0895002465
S11307400A941616170618060906089500240A9432
S113075012161306140605060895092E0394000CB8
S113076011F4882352F0BB0F40F4BF2B11F460FF47
S113077004C06F5F7F4F8F4F9F4F089557FD905870
S1130780440F551F59F05F3F71F04795880F97FB51
S1130790991F61F09F3F79F087950895121613060B
S11307A01406551FF2CF4695F1DF08C0161617063A
S11307B01806991FF1CF869571056105089408956F
S11307C0E894BB2766277727CB0197F908950E9401
S11307D0720308F48FEF08950E94FF030C94AD0395
S11307E00E949F0338F00E94A60320F0952311F085
S11307F00C9496030C949C0311240C94E1030E9422
S1130800BE0370F3959FC1F3950F50E0551F629F8F
S1130810F001729FBB27F00DB11D639FAA27F00D55
S1130820B11DAA1F649F6627B00DA11D661F829F7C
S11308302227B00DA11D621F739FB00DA11D621F61
S1130840839FA00D611D221F749F3327A00D611D7E
S1130850231F849F600D211D822F762F6A2F112460
S11308609F5750409AF0F1F088234AF0EE0FFF1F93
S1130870BB1F661F771F881F91505040A9F79E3FEA
S1130880510580F00C9496030C94E1035F3FE4F36C
S1130890983ED4F3869577956795B795F795E79540
S11308A09F5FC1F7FE2B880F911D9695879597F949
S11308B008950E94C603E8F09E37E8F09639B8F42C
S11308C09E3848F4672F782F8827985FF9CF86954C
S11308D07795679593959539D0F3B62FB1706B0FD3
S11308E0711D811D20F487957795679593950C94D8
S11308F07D040C9498040C94E103882371F4772309
S113090021F09850872B762F07C0662311F499277E
S11309100DC09051862B70E060E02AF09A95660F26
S1130920771F881FDAF7880F9695879597F90895AA
S11309309F3F31F0915020F4879577956795B7954F
S1130940880F911D9695879597F90895A29FB001F8
S1130950B39FC001A39F700D811D1124911DB29FEF
S1110960700D811D1124911D0895F894FFCF90
S10B096E0000000031012A0120
S9030000FC
