S0140000536368726974746D6F746F722E73726563FE
S11300000C9453000C947B000C947B000C947B00A8
S11300100C947B000C947B000C947B000C942502C4
S11300200C947B000C947B000C947B000C947B0060
S11300300C947B000C947B000C947B000C947B0050
S11300400C947B000C947B000C946C050C949A0526
S11300500C9490050C947B000C947B000C947B0016
S11300600C947B000C947B004E414E494E495459EC
S1130070494E46CDCCCC3D0AD7233C17B7D138776F
S1130080CC2B329595E6241FB14F0A000020410085
S113009000C84200401C4620BCBE4CCA1B0E5AAECF
S11300A0C59D7400BE0511241FBECFEFD8E0DEBF8E
S11300B0CDBF11E0A0E0B1E0E4EAF4E102C00590B4
S11300C00D92A034B107D9F724E0A0E4B1E001C057
S11300D01D92AC36B207E1F710E0C3E5D0E004C0EE
S11300E02197FE010E948908C235D107C9F70E94F1
S11300F0E4020C94500A0C940000CF93DF93EC01BB
S11301000E94C3041982FE01EE5BFF4F118210822C
S11301101A82DF91CF910895FF920F931F93CF938B
S1130120DF93EC01DC01A85ABF4F11961C921E927A
S1130130FC01EC5BFF4FCD01119211928E179F07CA
S1130140D9F7FE0132969A81992309F445C0BE017C
S11301506E5B7F4F81E040E08E01085A1F4FF12C07
S113016051E003C090819923B9F1923219F44527E3
S113017010822EC04423A1F0882351F1D8012D917F
S11301803C911197C90101968D939C93D901929644
S1130190AA0FBB1FAC0FBD1FED93FC938F2D18C08E
S11301A0903219F41082852F13C0882389F0D80166
S11301B02D913C911197C90101968D939C93D9017E
S11301C09296AA0FBB1FAC0FBD1FED93FC938F2D0E
S11301D031966E177F0731F6DF91CF911F910F9102
S11301E0FF900895CF93DF93FC01E85AFF4F2081DD
S11301F0318122303105A9F4EC017297808191811B
S11302000E948F08AB01BC01C65ADF4F88819981D7
S1130210DC01ED91FC910280F381E02D099581E0F0
S113022001C080E0DF91CF9108950F931F93CF9386
S1130230DF93FC01E85AFF4F2081318122303105E0
S113024061F5EC0172970081118160E071E0C801F1
S11302500E949308892B69F4C65ADF4F88819981DB
S1130260DC01ED91FC910190F081E02D61E00995B4
S113027017C063E071E0C8010E949308892B79F4E8
S1130280C65ADF4F88819981DC01ED91FC91019080
S1130290F081E02D60E0099503C080E001C080E0BA
S11302A0DF91CF911F910F910895662329F087E084
S11302B091E00E942005089584E191E00E942005C8
S11302C00895FC01E65AFF4F7183608361E00E9448
S11302D055010895EF92FF920F931F93CF93DF93ED
S11302E0CDB7DEB7CC55D1090FB6F894DEBF0FBE3B
S11302F0CDBF8C017B010E94C304CE0101960E94F4
S11303007D00B701C8010E946101C45ADF4F0FB6D6
S1130310F894DEBF0FBECDBFDF91CF911F910F9137
S1130320FF90EF9008950F931F93CF93DF93EC0109
S11303300E948C00FE01EC5BFF4F0081118164E29E
S113034071E0C8010E949308892B29F4CE010E9410
S1130350F200682F0DC068E271E0C8010E949308A2
S1130360892B29F4CE010E941501682F01C060E099
S1130370CE010E94550181E0DF91CF911F910F9131
S113038008950F931F93CF93DF93EC0189818230FB
S113039041F1833009F44AC0813039F081E0898326
S11303A0CE5BDF4F1982188248C00E943005882333
S11303B009F443C00E9437058D30B9F38A30A9F39C
S11303C0FE01EE5BFF4F20813181A9014F5F5F4F3A
S11303D051834083FE01E20FF31F828382E089830D
S11303E02CC08E010E5B1F4F0E943005882329F11B
S11303F00E9437058D3011F08A3059F483E08983E7
S1130400FE01EE5BFF4F80819181C80FD91F1A82D4
S113041014C0F80120813181A9014F5F5F4F5183DE
S11304204083FE01E20FF31F8283DECFBE016E5FC5
S11304307F4FCE010E9493011982DF91CF911F91CA
S11304400F9108950E94C10108951F920F920FB653
S11304500F9211242F933F934F935F936F937F9346
S11304608F939F93AF93BF93EF93FF936EE570EADF
S113047084E29CE30E94DE03FF91EF91BF91AF9170
S11304809F918F917F916F915F914F913F912F91A8
S11304900F900FBE0F901F90189582E08093B000CC
S11304A097E09093B1009CE99093B300809370001F
S11304B0089584B1826284B98AB18C648AB92D9A10
S11304C05E985A9A0E944D020895882311F05A9812
S11304D008955A9A0895811102C05B9808955B9A11
S11304E0089514BC15BC5E980895877092E494BD79
S11304F085BD0895CF92DF92EF92FF926115710549
S11305008105910509F459C00E94E1069B01AC01E3
S113051060E074E284EF9AE40E9439060E940508C0
S11305206B017C0120E03FEF4FE757E40E94930703
S11305301816A4F0C701B6010E94B2069B016F3FD2
S1130540710531F128F1369527953695279536951D
S113055027952F3F310509F018F420C02FEF3FE114
S11305603695279536952795369527952F3F31054E
S1130570B9F0B0F036952795369527952F3F31057C
S113058089F080F0369527953695279585E001C04A
S113059081E02F3F310509F050F405C082E003C02B
S11305A083E001C084E027BD0E94750208C08FEF7C
S11305B087BD85E00E94750202C00E947102FF900F
S11305C0EF90DF90CF900895CF93DF93CDB7DEB750
S11305D0C457D1090FB6F894DEBF0FBECDBF0E9439
S11305E0590248E351EC61E070E0CE0101960E94AB
S11305F00405CE0102960E949703BE016E5F7F4FF1
S1130600CE0149960E946A0178948EE291E00E949C
S11306102005CE0149960E942202FBCFFC01E0573F
S1130620FE4F118210823296118210820895DC01ED
S1130630A057BE4FFC01EE56FE4F81E04D915C91F8
S1130640208131814217530709F080E00895FC01AD
S1130650E057FE4F80819181019660E971E00E942C
S11306605208AC01329681E0208131814217530750
S113067009F080E008951F93CF93DF93EC01162FC8
S11306800E94270381110FC0FE01E057FE4F8081B5
S11306909181C80FD91F1883019660E971E00E9407
S11306A0520891838083DF91CF911F910895FC01BB
S11306B0EE56FE4F2081318132974081518142179D
S11306C0530781F0FC01E20FF31F4081FC01EE5659
S11306D0FE4FC901019660E971E00E9452089183BE
S11306E0808301C040E0842F0895FC014783508734
S11306F06187728781E00895662359F0FC012681A1
S1130700211111C021E0268381E00E94650281E06D
S11307100895FC012681213041F4168280E00E9474
S1130720650281E0089581E0089580E00895FC0168
S11307308CE391E091838083F0934101E093400145
S113074088EC90E09383828380E290E095838483B5
S1130750168280E090E0A0E7B1E48787908BA18BBC
S1130760B28B80E090E0A0EFB1E4838B948BA58BF7
S1130770B68B138614861586168617821086118604
S113078012860895CF92DF92EF92FF926A017B0165
S1130790FC0124813581A281B3810E9466080E94F4
S11307A0E106A70196010E9498070E94B2060E94E2
S11307B07A02FF90EF90DF90CF9008954F925F926E
S11307C06F927F928F929F92AF92BF92CF92DF925D
S11307D0EF92FF92CF93DF93CDB7DEB72A970FB690
S11307E0F894DEBF0FBECDBF2B013C0180914001C8
S11307F0909141019A878987FC0183849484A5841C
S1130800B684C780D084E184F28427853089418905
S11308105289C301B2010E9498076D837E838F833E
S11308209887E985FA852389348945895689C301DE
S1130830B2010E9498072B013C01A5019401C70154
S1130840B6010E94C70569837A838B839C8320E069
S113085030E0A901C501B4010E943406882354F58F
S11308602D813E814F815885505869817A818B81D1
S11308709C810E943406882354F42D813E814F814B
S11308805885C501B4010E94C7056B017C0129810B
S11308903A814B815C81C301B2010E9434068823F2
S11308A09CF5A3019201C501B4010E94C8056B0126
S11308B07C012AC029813A814B815C816D817E81D2
S11308C08F8198850E943406882354F42D813E81BB
S11308D04F815885C501B4010E94C8056B017C0194
S11308E0A3019201505869817A818B819C810E9475
S11308F034068823FCF4A3019201C501B4010E94CB
S1130900C7056B017C0116C0E985FA85C386D486C8
S1130910E586F68681E00E946B0280914001909109
S11309204101FC01438554856585768570580E9494
S1130930C20314C0E985FA85C386D486E586F686A3
S113094080E00E946B028091400190914101FC0182
S113095043855485658576850E94C2032A960FB621
S1130960F894DEBF0FBECDBFDF91CF91FF90EF9023
S1130970DF90CF90BF90AF909F908F907F906F90BB
S11309805F904F9008950895CF92DF92EF92FF9277
S11309900E94E3066B017C019B01AC0160E074E200
S11309A084E799E40E9439060E94AB069B012170FA
S11309B03327232BC1F082E08093C00088E9809321
S11309C0C10086E28093C200A701960160E074E250
S11309D084EF99E40E9439060E94AB067093C50027
S11309E06093C4000CC01092C00028E92093C10099
S11309F026E22093C2007093C5006093C400FF9068
S1130A00EF90DF90CF900895CB01BA010E94C40407
S1130A100895CF93C82F82E491E00E9427038111A7
S1130A200CC06C2F82E491E00E943B03E1ECF0E007
S1130A3080818062808381E001C080E0CF9108954D
S1130A40CF93DF93EC018881882331F021960E94B3
S1130A50090589918111FBCF81E0DF91CF91089540
S1130A6086ED92E00E94170391E08927089586EDB0
S1130A7092E00E945703089582E491E00E941703D4
S1130A80882331F0E1ECF0E080818F7D808308954C
S1130A9082E491E00E9457038093C6000895CF93A7
S1130AA080E283B986ED92E00E942703882331F027
S1130AB0E1ECF0E080818F7780830CC0C091C600A8
S1130AC06C2F86ED92E00E943B03C03218F08C2F0D
S1130AD00E940905CF9108951F920F920FB60F92AD
S1130AE011242F933F934F935F936F937F938F932F
S1130AF09F93AF93BF93EF93FF930E944F05FF9192
S1130B00EF91BF91AF919F918F917F916F915F9181
S1130B104F913F912F910F900FBE0F901F901895FA
S1130B201F920F920FB60F9211240F900FBE0F90C9
S1130B301F9018951F920F920FB60F9211242F93A6
S1130B403F934F935F936F937F938F939F93AF9351
S1130B50BF93EF93FF930E943C05FF91EF91BF91E8
S1130B60AF919F918F917F916F915F914F913F9141
S1130B702F910F900FBE0F901F90189586ED92E065
S1130B800E940E0382E491E00E940E0308955058DF
S1130B90BB27AA270E94DF050C9459070E944B0724
S1130BA038F00E94520720F039F49F3F19F426F4DC
S1130BB00C9448070EF4E095E7FB0C944207E92FE8
S1130BC00E946A0758F3BA176207730784079507E8
S1130BD020F079F4A6F50C948C070EF4E0950B2E16
S1130BE0BA2FA02D0B01B90190010C01CA01A0017B
S1130BF01124FF27591B99F0593F50F4503E68F1D6
S1130C001A16F040A22F232F342F4427585FF3CF16
S1130C10469537952795A795F0405395C9F77EF4E7
S1130C201F16BA0B620B730B840BBAF09150A1F030
S1130C30FF0FBB1F661F771F881FC2F70EC0BA0FB6
S1130C40621F731F841F48F4879577956795B7953E
S1130C50F7959E3F08F0B0CF9395880F08F0992739
S1130C60EE0F9795879508950E941E0708F481E07A
S1130C7008950E944D060C9459070E94520758F09B
S1130C800E944B0740F029F45F3F29F00C9442077F
S1130C9051110C948D070C9448070E946A0768F35D
S1130CA09923B1F3552391F3951B550BBB27AA2721
S1130CB062177307840738F09F5F5F4F220F331F5B
S1130CC0441FAA1FA9F335D00E2E3AF0E0E832D023
S1130CD091505040E695001CCAF72BD0FE2F29D026
S1130CE0660F771F881FBB1F261737074807AB07F8
S1130CF0B0E809F0BB0B802DBF01FF2793585F4F6D
S1130D003AF09E3F510578F00C9442070C948D07FD
S1130D105F3FE4F3983ED4F3869577956795B7954E
S1130D20F7959F5FC9F7880F911D9695879597F959
S1130D300895E1E0660F771F881FBB1F62177307D2
S1130D408407BA0720F0621B730B840BBA0BEE1FE7
S1130D5088F7E09508950E94B2066894B1110C9446
S1130D608D0708950E94720788F09F5798F0B92F55
S1130D709927B751B0F0E1F0660F771F881F991FCC
S1130D801AF0BA95C9F714C0B13091F00E948C07DB
S1130D90B1E008950C948C07672F782F8827B85FEB
S1130DA039F0B93FCCF3869577956795B395D9F724
S1130DB03EF490958095709561957F4F8F4F9F4F2E
S1130DC00895E89409C097FB3EF49095809570953A
S1130DD061957F4F8F4F9F4F9923A9F0F92F96E983
S1130DE0BB279395F695879577956795B795F111F8
S1130DF0F8CFFAF4BB0F11F460FF1BC06F5F7F4F95
S1130E008F4F9F4F16C0882311F096E911C07723A6
S1130E1021F09EE8872F762F05C0662371F096E8AF
S1130E20862F70E060E02AF09A95660F771F881F7E
S1130E30DAF7880F9695879597F90895990F000822
S1130E40550FAA0BE0E8FEEF16161706E807F90798
S1130E50C0F012161306E407F50798F0621B730B33
S1130E60840B950B39F40A2661F0232B242B252BB4
S1130E7021F408950A2609F4A140A6958FEF811D57
S1130E80811D089597F99F6780E870E060E00895F8
S1130E909FEF80EC089500240A941616170618068E
S1130EA00906089500240A9412161306140605066A
S1130EB00895092E0394000C11F4882352F0BB0FFB
S1130EC040F4BF2B11F460FF04C06F5F7F4F8F4F5E
S1130ED09F4F089557FD9058440F551F59F05F3F99
S1130EE071F04795880F97FB991F61F09F3F79F048
S1130EF087950895121613061406551FF2CF4695CA
S1130F00F1DF08C0161617061806991FF1CF86954B
S1130F107105610508940895E894BB27662777272F
S1130F20CB0197F908950E941E0708F48FEF0895E6
S1130F300E94AB070C9459070E944B0738F00E949B
S1130F40520720F0952311F00C9442070C944807A3
S1130F5011240C948D070E946A0770F3959FC1F3C6
S1130F60950F50E0551F629FF001729FBB27F00D53
S1130F70B11D639FAA27F00DB11DAA1F649F6627A8
S1130F80B00DA11D661F829F2227B00DA11D621FF7
S1130F90739FB00DA11D621F839FA00D611D221FB1
S1130FA0749F3327A00D611D231F849F600D211D95
S1130FB0822F762F6A2F11249F5750409AF0F1F018
S1130FC088234AF0EE0FFF1FBB1F661F771F881F81
S1130FD091505040A9F79E3F510580F00C94420770
S1130FE00C948D075F3FE4F3983ED4F38695779590
S1130FF06795B795F795E7959F5FC1F7FE2B880F27
S1131000911D9695879597F908950E947207E8F0C7
S11310109E37E8F09639B8F49E3848F4672F782F55
S11310208827985FF9CF8695779567959395953935
S1131030D0F3B62FB1706B0F711D811D20F487950D
S11310407795679593950C9429080C9444080C940F
S11310508D07882371F4772321F09850872B762FFE
S113106007C0662311F499270DC09051862B70E0B8
S113107060E02AF09A95660F771F881FDAF7880FC9
S11310809695879597F908959F3F31F0915020F4F4
S1131090879577956795B795880F911D9695879550
S11310A097F9089597FB072E16F4009407D077FD5F
S11310B009D00E94750807FC05D03EF490958195EF
S11310C09F4F0895709561957F4F0895A29FB00139
S11310D0B39FC001A39F700D811D1124911DB29F68
S11310E0700D811D1124911D0895AA1BBB1B51E194
S11310F007C0AA1FBB1FA617B70710F0A61BB70B84
S1131100881F991F5A95A9F780959095BC01CD0128
S11311100895EE0FFF1F0590F491E02D09946627C2
S113112077270C949C08FB01DC018D9101908019B8
S11311300110D9F3990B0895A0E0B0E0E2EAF8E0D9
S11311400C941F0AEC016B016115710519F0FB0188
S1131150918380837E01FFEFEF1AFF0A0881802FBD
S113116090E00E94EA09892B11F0E701F3CF0D32D8
S113117039F47E0182E0E80EF11C098111E008C017
S11311800B3229F47E0192E0E90EF11C098110E092
S1131190E701219743E050E060E770E0CE010E9450
S11311A0F309892BC1F4239645E050E06BE670E027
S11311B0CE010E94F309892B09F42596C114D104A8
S11311C019F0F601D183C0831111F6C060E070E01C
S11311D080E89FE7FAC043E050E068E670E0CE01A3
S11311E00E94F309892B59F4C114D10409F4E9C00C
S11311F0F2E0EF0EF11CF601F182E082E2C020E0A1
S113120030E0A901C0E0D0E0F70180EDA82EA00EE7
S113121089E08A1530F1912F9260B92E812F887060
S113122012FF04C0811124C0219622C0811121978C
S1131230A5E0B0E00E940E0ADC01CB01880F991FE3
S1131240AA1FBB1F9C01AD012A0D311D411D511D5B
S1131250283989E93807480789E1580748F01660B2
S113126006C09EEFA9120AC013FD40C01860B12E3B
S11312708FEFE81AF80A00811B2DC6CF802F8F7DCF
S11312808534A1F580818D3211F4106106C08B3252
S113129021F0319661E070E004C08181329662E011
S11312A070E080538A3018F0E61BF70B1FC060E033
S11312B070E060389CE079075CF4DB01AA0FBB1F87
S11312C0AA0FBB1F6A0F7B1F660F771F680F711D64
S11312D03196DF0111978C9180538A3050F314FFBB
S11312E003C0719561957109C60FD71F11FF08C01E
S11312F0C114D10429F0CF010197F60191838083B1
S1131300CA01B9010E94E106212F2370233019F08C
S11313104B015C0106C04B015C01B7FAB094B7F80D
S1131320B09420E030E0A901C501B4010E94340664
S1131330882309F43EC0D7FF06C0D195C195D109D1
S113134007E810E002C00FE910E06801F8E1CF1AE5
S1131350D10890E2E92EF12CCE15DF0574F0F801E6
S11313602591359145915491C501B4010E94980786
S11313704B015C01CE19DF09EFCF04501109F5943C
S1131380E7940C151D0541F78A2D880F8B2D881FB6
S11313908F3F49F020E030E0A901C501B4010E946B
S11313A03406811106C082E290E090936B0480932E
S11313B06A04C501B40109C060E070E080E89FEFF1
S11313C004C060E070E080EC9FE7CDB7DEB7ECE0EE
S11313D00C943B0A91110C940B0A803219F0895039
S11313E08550C8F70895FB01DC014150504088F056
S11313F08D9181341CF08B350CF4805E65916134E1
S11314001CF06B350CF4605E861B611171F3990B53
S11314100895881BFCCF9927882708950E946608A1
S1131420A59F900DB49F900DA49F800D911D112434
S113143008952F923F924F925F926F927F928F9274
S11314409F92AF92BF92CF92DF92EF92FF920F934F
S11314501F93CF93DF93CDB7DEB7CA1BDB0B0FB659
S1131460F894DEBF0FBECDBF09942A883988488816
S11314705F846E847D848C849B84AA84B984C884AC
S1131480DF80EE80FD800C811B81AA81B981CE0FA3
S1131490D11D0FB6F894DEBF0FBECDBFED01089588
S10714A0F894FFCFEA
S11314A46F6E006F666600202D2D3E204F4B0D0A93
S11314B43E3A2000202D2D3E204552524F520D0A13
S11314C43E3A200075707300706F77657200507532
S11314D46D7065313A0D0A00000000007C03750349
S9030000FC
