:100000000C9434000C9449000C9449000C94490061
:100010000C9449000C9449000C9449000C9449003C
:100020000C9449000C9449000C9449000C9449002C
:100030000C9449000C9449000C9449000C9449001C
:100040000C9449000C9449000C9449000C9449000C
:100050000C9449000C9449000C9449000C944900FC
:100060000C9449000C94490011241FBECFEFD8E036
:10007000DEBFCDBF11E0A0E0B1E0EEE1F1E002C0F3
:1000800005900D92A830B107D9F70E944B000C944F
:100090008D000C940000CF93DF93CDB7DEB7279788
:1000A0000FB6F894DEBF0FBECDBFCE0101960E9401
:1000B0007E0061E0CE0101960E94670040E050E0C2
:1000C00060E87FE3CE0101960E947C00FFCF6623AB
:1000D00041F0FC01268121110BC021E0268381E043
:1000E0000895FC012681213029F4168281E00895CB
:1000F00081E0089580E0089581E00895FC0184E0A6
:1001000091E09183808388EC90E09383828380E206
:0E01100090E09583848316820895F894FFCFC3
:08011E000000000067007C00F6
:00000001FF
