S0140000536368726974746D6F746F722E73726563FE
S11300000C9453000C947B000C947B000C947B00A8
S11300100C947B000C947B000C947B000C942502C4
S11300200C947B000C947B000C947B000C947B0060
S11300300C947B000C947B000C947B000C947B0050
S11300400C947B000C947B000C9410050C943E05DE
S11300500C9434050C947B000C947B000C947B0072
S11300600C947B000C947B004E414E494E495459EC
S1130070494E46CDCCCC3D0AD7233C17B7D138776F
S1130080CC2B329595E6241FB14F0A000020410085
S113009000C84200401C4620BCBE4CCA1B0E5AAECF
S11300A0C59D7400620511241FBECFEFD8E0DEBFEA
S11300B0CDBF11E0A0E0B1E0ECEEF3E102C00590A9
S11300C00D92A034B107D9F724E0A0E4B1E001C057
S11300D01D92AC36B207E1F710E0C3E5D0E004C0EE
S11300E02197FE010E942D08C235D107C9F70E944D
S11300F0DE020C94F4090C940000CF93DF93EC011E
S11301000E9467041982FE01EE5BFF4F1182108288
S11301101A82DF91CF910895FF920F931F93CF938B
S1130120DF93EC01DC01A85ABF4F11961C921E927A
S1130130FC01EC5BFF4FCD01119211928E179F07CA
S1130140D9F7FE0132969A81992309F445C0BE017C
S11301506E5B7F4F81E040E08E01085A1F4FF12C07
S113016051E003C090819923B9F1923219F44527E3
S113017010822EC04423A1F0882351F1D8012D917F
S11301803C911197C90101968D939C93D901929644
S1130190AA0FBB1FAC0FBD1FED93FC938F2D18C08E
S11301A0903219F41082852F13C0882389F0D80166
S11301B02D913C911197C90101968D939C93D9017E
S11301C09296AA0FBB1FAC0FBD1FED93FC938F2D0E
S11301D031966E177F0731F6DF91CF911F910F9102
S11301E0FF900895CF93DF93FC01E85AFF4F2081DD
S11301F0318122303105A9F4EC017297808191811B
S11302000E943308AB01BC01C65ADF4F8881998133
S1130210DC01ED91FC910280F381E02D099581E0F0
S113022001C080E0DF91CF9108950F931F93CF9386
S1130230DF93FC01E85AFF4F2081318122303105E0
S113024061F5EC0172970081118160E071E0C801F1
S11302500E943708892B69F4C65ADF4F8881998137
S1130260DC01ED91FC910190F081E02D61E00995B4
S113027017C063E071E0C8010E943708892B79F444
S1130280C65ADF4F88819981DC01ED91FC91019080
S1130290F081E02D60E0099503C080E001C080E0BA
S11302A0DF91CF911F910F910895662329F087E084
S11302B091E00E94C404089584E191E00E94C40482
S11302C00895FC01E65AFF4F7183608361E00E9448
S11302D055010895EF92FF920F931F93CF93DF93ED
S11302E0CDB7DEB7CC55D1090FB6F894DEBF0FBE3B
S11302F0CDBF8C017B010E946704CE0101960E9450
S11303007D00B701C8010E946101C45ADF4F0FB6D6
S1130310F894DEBF0FBECDBFDF91CF911F910F9137
S1130320FF90EF9008950F931F93CF93DF93EC0109
S11303300E948C00FE01EC5BFF4F0081118164E29E
S113034071E0C8010E943708892B29F4CE010E946C
S1130350F200682F0DC068E271E0C8010E943708FE
S1130360892B29F4CE010E941501682F01C060E099
S1130370CE010E94550181E0DF91CF911F910F9131
S113038008950F931F93CF93DF93EC0189818230FB
S113039041F1833009F44AC0813039F081E0898326
S11303A0CE5BDF4F1982188248C00E94D404882390
S11303B009F443C00E94DB048D30B9F38A30A9F3F9
S11303C0FE01EE5BFF4F20813181A9014F5F5F4F3A
S11303D051834083FE01E20FF31F828382E089830D
S11303E02CC08E010E5B1F4F0E94D404882329F178
S11303F00E94DB048D3011F08A3059F483E0898344
S1130400FE01EE5BFF4F80819181C80FD91F1A82D4
S113041014C0F80120813181A9014F5F5F4F5183DE
S11304204083FE01E20FF31F8283DECFBE016E5FC5
S11304307F4FCE010E9493011982DF91CF911F91CA
S11304400F9108950E94C10108951F920F920FB653
S11304500F9211242F933F934F935F936F937F9346
S11304608F939F93AF93BF93EF93FF936EE570EADF
S113047084E29CE30E94D403FF91EF91BF91AF917A
S11304809F918F917F916F915F914F913F912F91A8
S11304900F900FBE0F901F90189582E08093B000CC
S11304A097E09093B1009CE99093B300809370001F
S11304B0089584B1826284B98AB184648AB92D9A18
S11304C05E985A9A0E944D020895882311F05A9812
S11304D008955A9A089514BC15BC5E9808958770BF
S11304E092E494BD85BD0895CF92DF92EF92FF927E
S11304F0611571058105910509F459C00E948506AD
S11305009B01AC0160E07BE187EB9AE40E94DD058E
S11305100E94A9076B017C0120E03FEF4FE757E4FD
S11305200E9437071816A4F0C701B6010E945606A8
S11305309B016F3F710531F128F13695279536956A
S11305402795369527952F3F310509F018F420C0DB
S11305502FEF3FE1369527953695279536952795C4
S11305602F3F3105B9F0B0F036952795369527958C
S11305702F3F310589F080F03695279536952795DC
S113058085E001C081E02F3F310509F050F405C03A
S113059082E003C083E001C084E027BD0E946F02B3
S11305A008C08FEF87BD85E00E946F0202C00E94E1
S11305B06B02FF90EF90DF90CF900895CF93DF937D
S11305C0CDB7DEB7C457D1090FB6F894DEBF0FBE5E
S11305D0CDBF0E94590248E351EC61E070E0CE01C6
S11305E001960E94A804CE0102960E949103BE01C6
S11305F06E5F7F4FCE0149960E946A0178948EE225
S113060091E00E94C404CE0149960E942202FBCFCD
S1130610FC01E057FE4F1182108232961182108243
S11306200895DC01A057BE4FFC01EE56FE4F81E059
S11306304D915C91208131814217530709F080E08C
S11306400895FC01E057FE4F80819181019660E995
S113065071E00E94F607AC01329681E0208131817D
S11306604217530709F080E008951F93CF93DF9357
S1130670EC01162F0E94210381110FC0FE01E057E7
S1130680FE4F80819181C80FD91F1883019660E9BC
S113069071E00E94F60791838083DF91CF911F91CF
S11306A00895FC01EE56FE4F20813181329740813E
S11306B051814217530781F0FC01E20FF31F40817F
S11306C0FC01EE56FE4FC901019660E971E00E94FB
S11306D0F6079183808301C040E0842F0895FC01D4
S11306E0478350876187728781E00895662359F0B4
S11306F0FC012681211111C021E0268381E00E94A2
S1130700650281E00895FC012681213041F41682BE
S113071080E00E94650281E0089581E0089580E010
S11307200895FC018CE391E091838083F09341016F
S1130730E093400188EC90E09383828380E290E030
S113074095838483168280E090E0A0EAB0E48787F2
S1130750908BA18BB28B838B948BA58BB68B1386DA
S113076014861586168617821086118612860895B9
S1130770CF92DF92EF92FF926A017B01FC01248108
S11307803581A281B3810E940A080E948506A701CF
S113079096010E943C070E9456060E947402FF9034
S11307A0EF90DF90CF9008954F925F926F927F9277
S11307B08F929F92AF92BF92CF92DF92EF92FF926D
S11307C0CF93DF93CDB7DEB72A970FB6F894DEBF89
S11307D00FBECDBF6B017C0180914001909141011E
S11307E09A878987FC012785308941895289C70105
S11307F0B6010E943C076D837E838F839887E985C9
S1130800FA852389348945895689C701B6010E942E
S11308103C0769837A838B839C83E985FA85C78047
S1130820D084E184F2844384548465847684A3016F
S11308309201C701B6010E946B054B015C019B014B
S1130840AC016D817E818F8198850E94D8058823B3
S113085054F4A30192016D817E818F8198850E9459
S11308606C056B017C01A501940169817A818B81FE
S11308709C810E943707181654F429813A814B81D0
S11308805C81C301B2010E946B056B017C01E985A7
S1130890FA85C386D486E586F686B701A601CF011C
S11308A00E94B8032A960FB6F894DEBF0FBECDBFE0
S11308B0DF91CF91FF90EF90DF90CF90BF90AF90FA
S11308C09F908F907F906F905F904F9008950895C0
S11308D0CF92DF92EF92FF920E9487066B017C0118
S11308E09B01AC0160E074E284E799E40E94DD05B9
S11308F00E944F069B0121703327232BC1F082E015
S11309008093C00088E98093C10086E28093C2008E
S1130910A701960160E074E284EF99E40E94DD058A
S11309200E944F067093C5006093C4000CC01092DF
S1130930C00028E92093C10026E22093C2007093EE
S1130940C5006093C400FF90EF90DF90CF900895AE
S1130950CB01BA010E9468040895CF93C82F82E4A2
S113096091E00E94210381110CC06C2F82E491E07C
S11309700E943503E1ECF0E080818062808381E0B5
S113098001C080E0CF910895CF93DF93EC0188817B
S1130990882331F021960E94AD0489918111FBCF07
S11309A081E0DF91CF91089586ED92E00E941103DA
S11309B091E08927089586ED92E00E9451030895FD
S11309C082E491E00E941103882331F0E1ECF0E02D
S11309D080818F7D8083089582E491E00E94510399
S11309E08093C6000895CF9380E283B986ED92E0A8
S11309F00E942103882331F0E1ECF0E080818F77BD
S1130A0080830CC0C091C6006C2F86ED92E00E94DA
S1130A103503C03218F08C2F0E94AD04CF91089595
S1130A201F920F920FB60F9211242F933F934F935F
S1130A305F936F937F938F939F93AF93BF93EF9342
S1130A40FF930E94F304FF91EF91BF91AF919F91A7
S1130A508F917F916F915F914F913F912F910F9063
S1130A600FBE0F901F9018951F920F920FB60F9202
S1130A7011240F900FBE0F901F9018951F920F9284
S1130A800FB60F9211242F933F934F935F936F935D
S1130A907F938F939F93AF93BF93EF93FF930E94A2
S1130AA0E004FF91EF91BF91AF919F918F917F915E
S1130AB06F915F914F913F912F910F900FBE0F90C7
S1130AC01F90189586ED92E00E94080382E491E05D
S1130AD00E94080308955058BB27AA270E94830543
S1130AE00C94FD060E94EF0638F00E94F60620F0F2
S1130AF039F49F3F19F426F40C94EC060EF4E095B7
S1130B00E7FB0C94E606E92F0E940E0758F3BA1788
S1130B10620773078407950720F079F4A6F50C940F
S1130B2030070EF4E0950B2EBA2FA02D0B01B9015E
S1130B3090010C01CA01A0011124FF27591B99F04F
S1130B40593F50F4503E68F11A16F040A22F232F5B
S1130B50342F4427585FF3CF469537952795A795AB
S1130B60F0405395C9F77EF41F16BA0B620B730B52
S1130B70840BBAF09150A1F0FF0FBB1F661F771FC3
S1130B80881FC2F70EC0BA0F621F731F841F48F478
S1130B90879577956795B795F7959E3F08F0B0CF01
S1130BA09395880F08F09927EE0F979587950895E8
S1130BB00E94C20608F481E008950E94F1050C9495
S1130BC0FD060E94F60658F00E94EF0640F029F454
S1130BD05F3F29F00C94E60651110C9431070C94F4
S1130BE0EC060E940E0768F39923B1F3552391F3A1
S1130BF0951B550BBB27AA2762177307840738F088
S1130C009F5F5F4F220F331F441FAA1FA9F335D0E4
S1130C100E2E3AF0E0E832D091505040E695001C98
S1130C20CAF72BD0FE2F29D0660F771F881FBB1F52
S1130C30261737074807AB07B0E809F0BB0B802D30
S1130C40BF01FF2793585F4F3AF09E3F510578F05C
S1130C500C94E6060C9431075F3FE4F3983ED4F31A
S1130C60869577956795B795F7959F5FC9F7880F30
S1130C70911D9695879597F90895E1E0660F771F82
S1130C80881FBB1F621773078407BA0720F0621B13
S1130C90730B840BBA0BEE1F88F7E09508950E943E
S1130CA056066894B1110C94310708950E941607F2
S1130CB088F09F5798F0B92F9927B751B0F0E1F019
S1130CC0660F771F881F991F1AF0BA95C9F714C0C9
S1130CD0B13091F00E943007B1E008950C943007D0
S1130CE0672F782F8827B85F39F0B93FCCF3869502
S1130CF077956795B395D9F73EF49095809570955F
S1130D0061957F4F8F4F9F4F0895E89409C097FBDB
S1130D103EF490958095709561957F4F8F4F9F4FCE
S1130D209923A9F0F92F96E9BB279395F695879512
S1130D3077956795B795F111F8CFFAF4BB0F11F4D5
S1130D4060FF1BC06F5F7F4F8F4F9F4F16C088237C
S1130D5011F096E911C0772321F09EE8872F762FB2
S1130D6005C0662371F096E8862F70E060E02AF0F3
S1130D709A95660F771F881FDAF7880F96958795DF
S1130D8097F90895990F0008550FAA0BE0E8FEEFB4
S1130D9016161706E807F907C0F012161306E4073B
S1130DA0F50798F0621B730B840B950B39F40A2634
S1130DB061F0232B242B252B21F408950A2609F412
S1130DC0A140A6958FEF811D811D089597F99F6716
S1130DD080E870E060E008959FEF80EC08950024BF
S1130DE00A941616170618060906089500240A948C
S1130DF012161306140605060895092E0394000C12
S1130E0011F4882352F0BB0F40F4BF2B11F460FFA0
S1130E1004C06F5F7F4F8F4F9F4F089557FD9058C9
S1130E20440F551F59F05F3F71F04795880F97FBAA
S1130E30991F61F09F3F79F0879508951216130664
S1130E401406551FF2CF4695F1DF08C01616170693
S1130E501806991FF1CF86957105610508940895C8
S1130E60E894BB2766277727CB0197F908950E945A
S1130E70C20608F48FEF08950E944F070C94FD06F4
S1130E800E94EF0638F00E94F60620F0952311F038
S1130E900C94E6060C94EC0611240C9431070E9481
S1130EA00E0770F3959FC1F3950F50E0551F629F95
S1130EB0F001729FBB27F00DB11D639FAA27F00DAF
S1130EC0B11DAA1F649F6627B00DA11D661F829FD6
S1130ED02227B00DA11D621F739FB00DA11D621FBB
S1130EE0839FA00D611D221F749F3327A00D611DD8
S1130EF0231F849F600D211D822F762F6A2F1124BA
S1130F009F5750409AF0F1F088234AF0EE0FFF1FEC
S1130F10BB1F661F771F881F91505040A9F79E3F43
S1130F20510580F00C94E6060C9431075F3FE4F31E
S1130F30983ED4F3869577956795B795F795E79599
S1130F409F5FC1F7FE2B880F911D9695879597F9A2
S1130F5008950E941607E8F09E37E8F09639B8F431
S1130F609E3848F4672F782F8827985FF9CF8695A5
S1130F707795679593959539D0F3B62FB1706B0F2C
S1130F80711D811D20F487957795679593950C9431
S1130F90CD070C94E8070C943107882371F4772368
S1130FA021F09850872B762F07C0662311F49927D8
S1130FB00DC09051862B70E060E02AF09A95660F80
S1130FC0771F881FDAF7880F9695879597F9089504
S1130FD09F3F31F0915020F4879577956795B795A9
S1130FE0880F911D9695879597F9089597FB072E7D
S1130FF016F4009407D077FD09D00E94190807FC65
S113100005D03EF4909581959F4F08957095619514
S11310107F4F0895A29FB001B39FC001A39F700D9D
S1131020811D1124911DB29F700D811D1124911DEC
S11310300895AA1BBB1B51E107C0AA1FBB1FA6171B
S1131040B70710F0A61BB70B881F991F5A95A9F76D
S113105080959095BC01CD010895EE0FFF1F05907A
S1131060F491E02D0994662777270C944008FB013E
S1131070DC018D91019080190110D9F3990B089529
S1131080A0E0B0E0E6E4F8E00C94C309EC016B01E5
S11310906115710519F0FB01918380837E01FFEFD7
S11310A0EF1AFF0A0881802F90E00E948E09892B95
S11310B011F0E701F3CF0D3239F47E0182E0E80E3E
S11310C0F11C098111E008C00B3229F47E0192E081
S11310D0E90EF11C098110E0E701219743E050E09B
S11310E060E770E0CE010E949709892BC1F4239632
S11310F045E050E06BE670E0CE010E949709892B31
S113110009F42596C114D10419F0F601D183C083E2
S11311101111F6C060E070E080E89FE7FAC043E098
S113112050E068E670E0CE010E949709892B59F4DB
S1131130C114D10409F4E9C0F2E0EF0EF11CF60188
S1131140F182E082E2C020E030E0A901C0E0D0E01A
S1131150F70180EDA82EA00E89E08A1530F1912FB9
S11311609260B92E812F887012FF04C0811124C0AF
S1131170219622C081112197A5E0B0E00E94B20916
S1131180DC01CB01880F991FAA1FBB1F9C01AD0175
S11311902A0D311D411D511D283989E93807480799
S11311A089E1580748F0166006C09EEFA9120AC0EC
S11311B013FD40C01860B12E8FEFE81AF80A0081C1
S11311C01B2DC6CF802F8F7D8534A1F580818D3274
S11311D011F4106106C08B3221F0319661E070E0A9
S11311E004C08181329662E070E080538A3018F046
S11311F0E61BF70B1FC060E070E060389CE07907E5
S11312005CF4DB01AA0FBB1FAA0FBB1F6A0F7B1F75
S1131210660F771F680F711D3196DF0111978C914E
S113122080538A3050F314FF03C07195619571099E
S1131230C60FD71F11FF08C0C114D10429F0CF0174
S11312400197F60191838083CA01B9010E94850642
S1131250212F2370233019F04B015C0106C04B0190
S11312605C01B7FAB094B7F8B09420E030E0A9017B
S1131270C501B4010E94D805882309F43EC0D7FFF4
S113128006C0D195C195D10907E810E002C00FE965
S113129010E06801F8E1CF1AD10890E2E92EF12CB0
S11312A0CE15DF0574F0F8012591359145915491DF
S11312B0C501B4010E943C074B015C01CE19DF0952
S11312C0EFCF04501109F594E7940C151D0541F76F
S11312D08A2D880F8B2D881F8F3F49F020E030E046
S11312E0A901C501B4010E94D805811106C082E29A
S11312F090E090936B0480936A04C501B40109C023
S113130060E070E080E89FEF04C060E070E080EC93
S11313109FE7CDB7DEB7ECE00C94DF0991110C9494
S1131320AF09803219F089508550C8F70895FB0140
S1131330DC014150504088F08D9181341CF08B3594
S11313400CF4805E659161341CF06B350CF4605EC6
S1131350861B611171F3990B0895881BFCCF9927A3
S1131360882708950E940A08A59F900DB49F900DA8
S1131370A49F800D911D112408952F923F924F92A6
S11313805F926F927F928F929F92AF92BF92CF9211
S1131390DF92EF92FF920F931F93CF93DF93CDB71A
S11313A0DEB7CA1BDB0B0FB6F894DEBF0FBECDBF92
S11313B009942A88398848885F846E847D848C8463
S11313C09B84AA84B984C884DF80EE80FD800C816C
S11313D01B81AA81B981CE0FD11D0FB6F894DEBF4F
S10F13E00FBECDBFED010895F894FFCFBF
S11313EC6F6E006F666600202D2D3E204F4B0D0A4C
S11313FC3E3A2000202D2D3E204552524F520D0ACC
S113140C3E3A200075707300706F776572005075EA
S113141C6D7065313A0D0A000000000076036F030D
S9030000FC
