S0140000536368726974746D6F746F722E73726563FE
S11300000C9453000C947B000C947B000C947B00A8
S11300100C947B000C947B000C947B000C94800269
S11300200C947B000C947B000C947B000C947B0060
S11300300C947B000C947B000C947B000C947B0050
S11300400C947B000C947B000C94F5090C94230A0B
S11300500C94190A0C947B000C947B000C947B0088
S11300600C947B000C947B004E414E494E495459EC
S1130070494E46CDCCCC3D0AD7233C17B7D138776F
S1130080CC2B329595E6241FB14F0A000020410085
S113009000C84200401C4620BCBE4CCA1B0E5AAECF
S11300A0C59D7400470A11241FBECFEFD8E0DEBF00
S11300B0CDBF11E0A0E0B1E0E6EBFDE102C00590A8
S11300C00D92AA35B107D9F724E0AAE5B1E001C041
S11300D01D92A638B207E1F710E0C3E5D0E004C0F2
S11300E02197FE010E94120DC235D107C9F70E9463
S11300F03F030C94D90E0C940000CF93DF93EC01D2
S11301000E944C091982FE01EE5BFF4F118210829E
S11301101A82DF91CF910895FF920F931F93CF938B
S1130120DF93EC01DC01A85ABF4F11961C921E927A
S1130130FC01EC5BFF4FCD01119211928E179F07CA
S1130140D9F7FE0132969A81992309F445C0BE017C
S11301506E5B7F4F81E040E08E01085A1F4FF12C07
S113016051E003C090819923B9F1923219F44527E3
S113017010822EC04423A1F0882351F1D8012D917F
S11301803C911197C90101968D939C93D901929644
S1130190AA0FBB1FAC0FBD1FED93FC938F2D18C08E
S11301A0903219F41082852F13C0882389F0D80166
S11301B02D913C911197C90101968D939C93D9017E
S11301C09296AA0FBB1FAC0FBD1FED93FC938F2D0E
S11301D031966E177F0731F6DF91CF911F910F9102
S11301E0FF900895CF93DF93FC01E85AFF4F2081DD
S11301F0318122303105A1F4EC0172978081918123
S11302000E94180DAB01BC01C65ADF4F8881998149
S1130210DC01ED91FC910280F381E02D099501C090
S113022080E0DF91CF910895CF92DF92EF92FF9219
S11302300F931F93CF93DF93EC01FC01E85AFF4F18
S1130240808191818230910599F4729780819181A6
S11302500E94180DAB01BC01C65ADF4F88819981F9
S1130260DC01ED91FC910480F581E02D099523C01A
S1130270039701F5FE01EA5BFF4F808191810E94A3
S1130280180D6B017C01FE01E85BFF4F80819181B9
S11302900E94180D8B019C01C65ADF4F88819981F9
S11302A0DC01ED91FC910680F781E02DB701A601F8
S11302B0099501C080E0DF91CF911F910F91FF90CC
S11302C0EF90DF90CF9008950F931F93CF93DF9318
S11302D0FC01E85AFF4F208131812230310561F55C
S11302E0EC0172970081118160E071E0C8010E9405
S11302F01C0D892B69F4C65ADF4F88819981DC0172
S1130300ED91FC910190F081E02D61E0099517C019
S113031063E071E0C8010E941C0D892B79F4C65A70
S1130320DF4F88819981DC01ED91FC910190F0818E
S1130330E02D60E0099503C080E001C080E0DF911A
S1130340CF911F910F910895662329F087E091E0E2
S11303500E94A909089584E191E00E94A9090895E1
S1130360FC01E65AFF4F7183608361E00E94A4019F
S11303700895EF92FF920F931F93CF93DF93CDB71E
S1130380DEB7CC55D1090FB6F894DEBF0FBECDBF92
S11303908C017B010E944C09CE0101960E947D00D4
S11303A0B701C8010E94B001C45ADF4F0FB6F894D8
S11303B0DEBF0FBECDBFDF91CF911F910F91FF9094
S11303C0EF9008950F931F93CF93DF93EC010E9456
S11303D08C00FE01EC5BFF4F0081118164E271E04F
S11303E0C8010E941C0D892B29F4CE010E94F20041
S11303F0682F19C068E271E0C8010E941C0D892BA6
S113040029F4CE010E941401682F0DC06DE271E041
S1130410C8010E941C0D892B29F4CE010E9464019D
S1130420682F01C060E0CE010E94A40181E0DF9149
S1130430CF911F910F9108950F931F93CF93DF9343
S1130440EC018981823041F1833009F44AC0813062
S113045039F081E08983CE5BDF4F1982188248C06E
S11304600E94B909882309F443C00E94C0098D3051
S1130470B9F38A30A9F3FE01EE5BFF4F208131818D
S1130480A9014F5F5F4F51834083FE01E20FF31FC9
S1130490828382E089832CC08E010E5B1F4F0E94F1
S11304A0B909882329F10E94C0098D3011F08A30DE
S11304B059F483E08983FE01EE5BFF4F80819181D3
S11304C0C80FD91F1A8214C0F80120813181A901F3
S11304D04F5F5F4F51834083FE01E20FF31F82831E
S11304E0DECFBE016E5F7F4FCE010E94E201198212
S11304F0DF91CF911F910F9108950E941C020895DE
S11305001F920F920FB60F9211242F933F934F9384
S11305105F936F937F938F939F93AF93BF93EF9367
S1130520FF936AE077ED83E29CE30E94CE06FF919D
S1130530EF91BF91AF919F918F917F916F915F9157
S11305404F913F912F910F900FBE0F901F901895D0
S113055082E08093B00097E09093B1009CE990937F
S1130560B30080937000089584B1826284B98AB123
S11305708C648AB92D9A5E985A9A0E94A8020895AA
S1130580882311F05A9808955A9A0895811102C047
S11305905B9808955B9A089514BC15BC5E98089501
S11305A0877092E494BD85BD0895CF92DF92EF9257
S11305B0FF92611571058105910509F459C00E94E6
S11305C06A0B9B01AC0160E074E284EF9AE40E9440
S11305D0C20A0E948E0C6B017C0120E03FEF4FE7C2
S11305E057E40E941C0C1816A4F0C701B6010E941F
S11305F03B0B9B016F3F710531F128F1369527952F
S113060036952795369527952F3F310509F018F42F
S113061020C02FEF3FE136952795369527953695DF
S113062027952F3F3105B9F0B0F0369527953695CB
S113063027952F3F310589F080F03695279536951B
S1130640279585E001C081E02F3F310509F050F482
S113065005C082E003C083E001C084E027BD0E949E
S1130660D00208C08FEF87BD85E00E94D00202C08F
S11306700E94CC02FF90EF90DF90CF900895CF932B
S1130680DF93CDB7DEB7C85AD1090FB6F894DEBFF1
S11306900FBECDBF0E94B40248E351EC61E070E0AC
S11306A0CE0101960E948D09CE0102960E940E048D
S11306B0BE016E5F7F4FCE01835B9F4F0E94B901E5
S11306C0789483E391E00E94A909CE01835B9F4F54
S11306D00E947D02FACFFC01E057FE4F1182108286
S11306E03296118210820895DC01A057BE4FFC019E
S11306F0EE56FE4F81E04D915C912081318142178D
S1130700530709F080E00895FC01E057FE4F808113
S11307109181019660E971E00E94DB0CAC01329694
S113072081E0208131814217530709F080E0089568
S11307301F93CF93DF93EC01162F0E948403811142
S11307400FC0FE01E057FE4F80819181C80FD91F71
S11307501883019660E971E00E94DB0C9183808329
S1130760DF91CF911F910895FC01EE56FE4F208139
S113077031813297408151814217530781F0FC0146
S1130780E20FF31F4081FC01EE56FE4FC9010196B2
S113079060E971E00E94DB0C9183808301C040E03A
S11307A0842F0895FC0196819150923040F4478340
S11307B050876187728782E0868381E0089580E0B4
S11307C008950F931F93DC01ED91FC910680F7814E
S11307D0E02D00E010E020E231E409951F910F9133
S11307E00895FC019681992319F0913049F010C0C5
S11307F0662381F081E086830E94C00281E008952F
S113080061110AC0168280E00E94C00281E008954E
S113081080E0089581E0089581E00895CF93DF9307
S1130820FC0181E591E091838083F0935B01E09387
S11308305A0188EC90E09383828380E290E0958370
S11308408483168280E090E0A0E7B1E48787908BF0
S1130850A18BB28B40E050E060EF71E4438B548B8A
S1130860658B768B138614861586168617821086FA
S11308701186128640E050E060E87FE3438F548F96
S1130880658F768F40E050E060E07FE3478B508FC8
S1130890618F728FEF01EF964AE057ED63E27CE3DC
S11308A0488359836A837B83ED5BFF4F8083918305
S11308B0A283B383DF91CF910895CF92DF92EF9219
S11308C0FF92CF93DF93EC016A017B0120E030E0DB
S11308D0A901C701B6010E941C0C8823A4F080E082
S11308E00E94C6022C813D81AA81BB810E94EF0C2B
S11308F00E946A0BA70196010E94210C0E943B0BE7
S11309000E94D50214C081E00E94C6022C813D8160
S1130910AA81BB810E94EF0C0E946A0BA701960179
S113092050580E94210C0E943B0B0E94D502DF917B
S1130930CF91FF90EF90DF90CF900895CF92DF9208
S1130940EF92FF92CF93DF93EC016A017B0120E0E9
S113095030E0A901C701B6010E941C0C88238CF069
S11309602C813D81AA81BB810E94EF0C0E946A0BFD
S1130970A70196010E94210C0E943B0B0E94D50204
S113098011C02C813D81AA81BB810E94EF0C0E9481
S11309906A0BA701960150580E94210C0E943B0B40
S11309A00E94D502DF91CF91FF90EF90DF90CF901E
S11309B008952F923F924F925F926F927F928F92FF
S11309C09F92AF92BF92CF92DF92EF92FF920F93DA
S11309D01F93CF93DF9300D000D000D0CDB7DEB704
S11309E09E838D834A015B01FC01C384D484E58426
S11309F0F6841781008531842284278530894189D2
S1130A005289C501B4010E94210C2B013C01ED81E6
S1130A10FE812389348945895689C501B4010E9420
S1130A20210C4B015C01A7019601612F702F832DCE
S1130A30922D0E94500A69837A838B839C8320E0E1
S1130A4030E0A901C701B6010E94BD0A88237CF5E4
S1130A50A3019201505869817A818B819C810E9403
S1130A60BD0A88235CF4A3019201C701B6010E9468
S1130A70500A762E672E582E492E04C0712E602EF1
S1130A80532C422C29813A814B815C81C501B401EC
S1130A900E94BD0A8823CCF5A5019401C701B601C3
S1130AA00E94510A762E672E582E492E2EC0298177
S1130AB03A814B815C81C301B2010E94BD0A882343
S1130AC05CF4A3019201C701B6010E94510A762E7B
S1130AD0672E582E492E04C0712E602E532C422CA2
S1130AE0A5019401505869817A818B819C810E946F
S1130AF0BD0A882354F4A5019401C701B6010E94DC
S1130B00500A762E672E582E492E472D562D652DC8
S1130B10742D8D819E810E945D04872D962DA52DB7
S1130B20B42DED81FE8183879487A587B68786815E
S1130B308230F1F420E030E0A901672D762D852D77
S1130B40942D0E94BD0A811113C020E030E0A90158
S1130B50612F702F832D922D0E94BD0A811108C030
S1130B6081E0ED81FE8186838DE391E00E94A909F5
S1130B7026960FB6F894DEBF0FBECDBFDF91CF919E
S1130B801F910F91FF90EF90DF90CF90BF90AF90A7
S1130B909F908F907F906F905F904F903F902F9099
S1130BA008958F929F92AF92BF92CF92DF92EF926D
S1130BB0FF92CF93DF93EC014A015B01CBA0DCA051
S1130BC0EDA0FEA0A70196016BAD7CAD8DAD9EADF1
S1130BD00E94BD0A882384F52F81388549855A856A
S1130BE0C501B4010E94210CA70196010E94C20A0A
S1130BF02FA938AD49AD5AAD0E94510A6B017C0151
S1130C006FAB78AF89AF9AAFFE01FF968080918079
S1130C10A280B380A50194010E94BD0A882334F404
S1130C20B501A401CE010E949E040FC0B701A60124
S1130C30CE010E949E0409C04F81588569857A853A
S1130C40CE010E949E0484E08E83DF91CF91FF90B9
S1130C50EF90DF90CF90BF90AF909F908F900895CA
S1130C60CF93DF93EC012F8D38A149A15AA16BA139
S1130C707CA18DA19EA10E94510A9B01AC016BAD88
S1130C807CAD8DAD9EAD0E941C0C882314F085E0D4
S1130C908E83DF91CF9108958F929F92AF92BF92EE
S1130CA0CF92DF92EF92FF92CF93DF93EC014A0150
S1130CB05B01CFA0D8A4E9A4FAA42F8D38A149A13F
S1130CC05AA16BA17CA18DA19EA10E94510AA701EA
S1130CD096010E94510A9B01AC016BAD7CAD8DADB8
S1130CE09EAD0E94BD0A882394F52F8138854985DD
S1130CF05A85C501B4010E94210CA70196010E94E6
S1130D00C20A9B01AC016FA978AD89AD9AAD0E946E
S1130D10500A6B017C016FAB78AF89AF9AAFFE01CB
S1130D20FF9680809180A280B380A50194010E94E7
S1130D30BD0A882334F4B501A401CE010E949E04A7
S1130D4011C0B701A601CE010E949E040BC0FE0192
S1130D50FF964081518162817381CE010E949E047D
S1130D6086E08E83DF91CF91FF90EF90DF90CF905C
S1130D70BF90AF909F908F900895CF93DF93EC0135
S1130D8040E050E0BA010E949E0481E08E838DE32E
S1130D9091E00E94A909DF91CF910895CF92DF924B
S1130DA0EF92FF92CF93DF936B017C01C0915A01C4
S1130DB0D0915B019B01AC016BAD7CAD8DAD9EAD63
S1130DC00E94510A6BAF7CAF8DAF9EAF8E81843091
S1130DD0B9F028F4823041F0833061F022C08530CC
S1130DE0A9F08630C9F01DC0B701A601CE010E944A
S1130DF0D90417C0B701A601CE010E94D10511C0C4
S1130E00B701A601CE010E9430060BC0B701A601AE
S1130E10CE010E944C0605C0B701A601CE010E9476
S1130E20BD06DF91CF91FF90EF90DF90CF900895B2
S1130E304F925F926F927F928F929F92AF92BF92E6
S1130E40CF92DF92EF92FF920F931F93CF93DF9392
S1130E50CDB7DEB72A970FB6F894DEBF0FBECDBF6D
S1130E609A8789876A017B0109831A832B833C83D0
S1130E7020E030E0A901C701B6010E94BD0A882321
S1130E8044F481E00E94C602F7FAF094F7F8F09473
S1130E9003C080E00E94C602A985BA855B964D9086
S1130EA05D906D907C905E9757968D909D90AD90DF
S1130EB0BC905A97A5019401C301B2010E94510A42
S1130EC029813A814B815C810E941C0C18160CF01C
S1130ED058C02BEA3AEA4AE25FE369817A818B815E
S1130EE09C810E94210C2B013C01E985FA8563A3B6
S1130EF074A385A396A39B01AC0169817A818B813C
S1130F009C810E94500A4B015C01A985BA85979681
S1130F106D937D938D939C939A9729813A814B810C
S1130F205C81C701B6010E94C20A69837A838B83FC
S1130F309C839B01AC01C301B2010E94210CE98591
S1130F40FA8563A774A785A796A729813A814B815F
S1130F505C81C501B4010E94210CA985BA859F96C4
S1130F606D937D938D939C93D297FD0113AA14AA3C
S1130F7015AA16AA5F961D921D921D921C92929715
S1130F8090C0E985FA8543A254A265A276A287A2FD
S1130F9090A6A1A6B2A6A301920169817A818B8150
S1130FA09C810E94500AA50194010E94500A698301
S1130FB07A838B839C83E985FA85678F70A381A3E9
S1130FC092A320E030E040E05FE3C301B2010E945D
S1130FD0210C29813A814B815C810E94510A6D83E5
S1130FE07E838F83988720E030E040E05FE3C50193
S1130FF0B4010E94210C9B01AC016D817E818F8123
S113100098850E94510A6D837E838F8398872981F6
S11310103A814B815C81C701B6010E94210C2D816C
S11310203E814F8158850E94C20AA985BA85D3960C
S11310306D937D938D939C93D6972D813E814F81A3
S11310405885C701B6010E94C20A69837A838B83DB
S11310509C839B01AC01C301B2010E94210C20E0DE
S113106030E040E05FE30E94210CE985FA8563A744
S113107074A785A796A729813A814B815C81C50114
S1131080B4010E94210C20E030E040E05FE30E94C4
S1131090210CA985BA859F966D937D938D939C931E
S11310A0D297E985FA8524813581A281B3810E9492
S11310B0EF0C0E946A0BA70196010E94210C0E946A
S11310C08E0CA984BA84F7E4AF0EB11C0E943B0BCA
S11310D0D5016D937D938D939C931397E985FA8540
S11310E0878C90A0A1A0B2A020E030E0A901C501A6
S11310F0B4010E941C0C18169CF4A5019401A98546
S1131100BA85D3966D917D918D919C91D6970E94CD
S1131110C20AE985FA8567837087818792871AC036
S1131120A985BA8593962D913D914D915C919697A1
S11311309B966D917D918D919C919E970E94C20A80
S11311409B01AC010E94510AE985FA856783708787
S113115081879287E985FA85ED5BFF4F80809180D6
S1131160A280B380A5019401A985BA8517966D91D3
S11311707D918D919C911A970E941C0C18160CF06D
S113118056C0E985FA8587829086A186B28623A116
S113119034A145A156A1C501B4010E94210C20E04F
S11311A030E040E05FE30E94210C2B013C01A98563
S11311B0BA859B966D937D938D939C939E979796FA
S11311C02D913D914D915C919A97C501B4010E9476
S11311D0210C20E030E040E05FE30E94210C6983B1
S11311E07A838B839C83E985FA8567A770AB81AB8F
S11311F092ABA3019201C701B6010E94500A298152
S11312003A814B815C810E94500AA985BA85D396A4
S11312106D937D938D939C93D697A50194010E9421
S1131220C20AE985FA85678F70A381A392A32A96DF
S11312300FB6F894DEBF0FBECDBFDF91CF911F91E3
S11312400F91FF90EF90DF90CF90BF90AF909F9061
S11312508F907F906F905F904F9008950F931F939E
S1131260CF93DF93DC011696EC91E13079F4EC0135
S11312700E9418071BAE1CAE1DAE1EAE1FAA18AEF0
S113128019AE1AAE83E08E8381E001C080E0DF9165
S1131290CF911F910F9108950895CF92DF92EF920D
S11312A0FF920E946C0B6B017C019B01AC0160E01E
S11312B074E284E799E40E94C20A0E94340B9B0101
S11312C021703327232BC1F082E08093C00088E98A
S11312D08093C10086E28093C200A701960160E07A
S11312E074E284EF99E40E94C20A0E94340B709362
S11312F0C5006093C4000CC01092C00028E920937C
S1131300C10026E22093C2007093C5006093C4001C
S1131310FF90EF90DF90CF900895CB01BA010E9427
S11313204D090895CF93C82F8CE591E00E94840362
S113133081110CC06C2F8CE591E00E949803E1ECC4
S1131340F0E080818062808381E001C080E0CF9101
S11313500895CF93DF93EC018881882331F021969F
S11313600E94920989918111FBCF81E0DF91CF9195
S1131370089580EF92E00E94740391E08927089514
S113138080EF92E00E94B40308958CE591E00E94FE
S11313907403882331F0E1ECF0E080818F7D808359
S11313A008958CE591E00E94B4038093C6000895EB
S11313B0CF9380E283B980EF92E00E948403882374
S11313C031F0E1ECF0E080818F7780830CC0C09134
S11313D0C6006C2F80EF92E00E949803C03218F090
S11313E08C2F0E949209CF9108951F920F920FB6ED
S11313F00F9211242F933F934F935F936F937F9397
S11314008F939F93AF93BF93EF93FF930E94D80959
S1131410FF91EF91BF91AF919F918F917F916F91C8
S11314205F914F913F912F910F900FBE0F901F909E
S113143018951F920F920FB60F9211240F900FBEA2
S11314400F901F9018951F920F920FB60F921124B0
S11314502F933F934F935F936F937F938F939F93B8
S1131460AF93BF93EF93FF930E94C509FF91EF9150
S1131470BF91AF919F918F917F916F915F914F91A8
S11314803F912F910F900FBE0F901F90189580EFF2
S113149092E00E946B038CE591E00E946B03089537
S11314A05058BB27AA270E94680A0C94E20B0E949A
S11314B0D40B38F00E94DB0B20F039F49F3F19F471
S11314C026F40C94D10B0EF4E095E7FB0C94CB0BB3
S11314D0E92F0E94F30B58F3BA17620773078407C6
S11314E0950720F079F4A6F50C94150C0EF4E0950C
S11314F00B2EBA2FA02D0B01B90190010C01CA01CA
S1131500A0011124FF27591B99F0593F50F4503E74
S113151068F11A16F040A22F232F342F4427585F66
S1131520F3CF469537952795A795F0405395C9F77E
S11315307EF41F16BA0B620B730B840BBAF0915036
S1131540A1F0FF0FBB1F661F771F881FC2F70EC0D5
S1131550BA0F621F731F841F48F4879577956795A8
S1131560B795F7959E3F08F0B0CF9395880F08F094
S11315709927EE0F9795879508950E94A70B08F475
S113158081E008950E94D60A0C94E20B0E94DB0BC2
S113159058F00E94D40B40F029F45F3F29F00C94DA
S11315A0CB0B51110C94160C0C94D10B0E94F30B21
S11315B068F39923B1F3552391F3951B550BBB277E
S11315C0AA2762177307840738F09F5F5F4F220FC3
S11315D0331F441FAA1FA9F335D00E2E3AF0E0E8BA
S11315E032D091505040E695001CCAF72BD0FE2F04
S11315F029D0660F771F881FBB1F26173707480798
S1131600AB07B0E809F0BB0B802DBF01FF2793584F
S11316105F4F3AF09E3F510578F00C94CB0B0C943D
S1131620160C5F3FE4F3983ED4F38695779567955F
S1131630B795F7959F5FC9F7880F911D9695879584
S113164097F90895E1E0660F771F881FBB1F6217A3
S113165073078407BA0720F0621B730B840BBA0B61
S1131660EE1F88F7E09508950E943B0B6894B11132
S11316700C94160C08950E94FB0B88F09F5798F069
S1131680B92F9927B751B0F0E1F0660F771F881F83
S1131690991F1AF0BA95C9F714C0B13091F00E949D
S11316A0150CB1E008950C94150C672F782F88273A
S11316B0B85F39F0B93FCCF3869577956795B395C4
S11316C0D9F73EF490958095709561957F4F8F4F33
S11316D09F4F0895E89409C097FB3EF49095809538
S11316E0709561957F4F8F4F9F4F9923A9F0F92FE4
S11316F096E9BB279395F695879577956795B79562
S1131700F111F8CFFAF4BB0F11F460FF1BC06F5F47
S11317107F4F8F4F9F4F16C0882311F096E911C059
S1131720772321F09EE8872F762F05C0662371F07A
S113173096E8862F70E060E02AF09A95660F771F8E
S1131740881FDAF7880F9695879597F90895990F6A
S11317500008550FAA0BE0E8FEEF16161706E80777
S1131760F907C0F012161306E407F50798F0621B98
S1131770730B840B950B39F40A2661F0232B242B6D
S1131780252B21F408950A2609F4A140A6958FEF8C
S1131790811D811D089597F99F6780E870E060E0DE
S11317A008959FEF80EC089500240A9416161706F6
S11317B018060906089500240A941216130614063E
S11317C005060895092E0394000C11F4882352F0A1
S11317D0BB0F40F4BF2B11F460FF04C06F5F7F4F59
S11317E08F4F9F4F089557FD9058440F551F59F040
S11317F05F3F71F04795880F97FB991F61F09F3FFA
S113180079F087950895121613061406551FF2CF22
S11318104695F1DF08C0161617061806991FF1CF72
S113182086957105610508940895E894BB27662799
S11318307727CB0197F908950E94A70B08F48FEF3F
S113184008950E94340C0C94E20B0E94D40B38F0DF
S11318500E94DB0B20F0952311F00C94CB0B0C941D
S1131860D10B11240C94160C0E94F30B70F3959F6A
S1131870C1F3950F50E0551F629FF001729FBB2783
S1131880F00DB11D639FAA27F00DB11DAA1F649F1F
S11318906627B00DA11D661F829F2227B00DA11DD2
S11318A0621F739FB00DA11D621F839FA00D611D58
S11318B0221F749F3327A00D611D231F849F600D79
S11318C0211D822F762F6A2F11249F5750409AF0A2
S11318D0F1F088234AF0EE0FFF1FBB1F661F771F2E
S11318E0881F91505040A9F79E3F510580F00C94F9
S11318F0CB0B0C94160C5F3FE4F3983ED4F386951F
S113190077956795B795F795E7959F5FC1F7FE2B98
S1131910880F911D9695879597F908950E94FB0B62
S1131920E8F09E37E8F09639B8F49E3848F4672F0B
S1131930782F8827985FF9CF869577956795939543
S11319409539D0F3B62FB1706B0F711D811D20F442
S113195087957795679593950C94B20C0C94CD0C60
S11319600C94160C882371F4772321F09850872B5C
S1131970762F07C0662311F499270DC09051862B4A
S113198070E060E02AF09A95660F771F881FDAF7F7
S1131990880F9695879597F908959F3F31F0915058
S11319A020F4879577956795B795880F911D96953F
S11319B0879597F9089597FB072E16F4009407D09E
S11319C077FD09D00E94FE0C07FC05D03EF49095EB
S11319D081959F4F0895709561957F4F0895A29FBB
S11319E0B001B39FC001A39F700D811D1124911DEF
S11319F0B29F700D811D1124911D0895AA1BBB1B5C
S1131A0051E107C0AA1FBB1FA617B70710F0A61BFA
S1131A10B70B881F991F5A95A9F780959095BC011B
S1131A20CD010895EE0FFF1F0590F491E02D099468
S1131A30662777270C94250DFB01DC018D9101901D
S1131A4080190110D9F3990B0895A0E0B0E0EBE2FE
S1131A50FDE00C94A80EEC016B016115710519F001
S1131A60FB01918380837E01FFEFEF1AFF0A088157
S1131A70802F90E00E94730E892B11F0E701F3CFC1
S1131A800D3239F47E0182E0E80EF11C098111E087
S1131A9008C00B3229F47E0192E0E90EF11C0981A1
S1131AA010E0E701219743E050E060E770E0CE01E9
S1131AB00E947C0E892BC1F4239645E050E06BE62E
S1131AC070E0CE010E947C0E892B09F42596C11486
S1131AD0D10419F0F601D183C0831111F6C060E07E
S1131AE070E080E89FE7FAC043E050E068E670E009
S1131AF0CE010E947C0E892B59F4C114D10409F43F
S1131B00E9C0F2E0EF0EF11CF601F182E082E2C0DE
S1131B1020E030E0A901C0E0D0E0F70180EDA82E7C
S1131B20A00E89E08A1530F1912F9260B92E812F91
S1131B30887012FF04C0811124C0219622C0811133
S1131B402197A5E0B0E00E94970EDC01CB01880F3D
S1131B50991FAA1FBB1F9C01AD012A0D311D411DF8
S1131B60511D283989E93807480789E1580748F0A1
S1131B70166006C09EEFA9120AC013FD40C018608B
S1131B80B12E8FEFE81AF80A00811B2DC6CF802FE3
S1131B908F7D8534A1F580818D3211F4106106C0EA
S1131BA08B3221F0319661E070E004C0818132967D
S1131BB062E070E080538A3018F0E61BF70B1FC018
S1131BC060E070E060389CE079075CF4DB01AA0F08
S1131BD0BB1FAA0FBB1F6A0F7B1F660F771F680FFF
S1131BE0711D3196DF0111978C9180538A3050F327
S1131BF014FF03C0719561957109C60FD71F11FFBA
S1131C0008C0C114D10429F0CF010197F6019183D2
S1131C108083CA01B9010E946A0B212F23702330EB
S1131C2019F04B015C0106C04B015C01B7FAB0949A
S1131C30B7F8B09420E030E0A901C501B4010E94D6
S1131C40BD0A882309F43EC0D7FF06C0D195C195CB
S1131C50D10907E810E002C00FE910E06801F8E1DB
S1131C60CF1AD10890E2E92EF12CCE15DF0574F0DD
S1131C70F8012591359145915491C501B4010E9413
S1131C80210C4B015C01CE19DF09EFCF045011097F
S1131C90F594E7940C151D0541F78A2D880F8B2DBB
S1131CA0881F8F3F49F020E030E0A901C501B4014D
S1131CB00E94BD0A811106C082E290E090938504DF
S1131CC080938404C501B40109C060E070E080E839
S1131CD09FEF04C060E070E080EC9FE7CDB7DEB713
S1131CE0ECE00C94C40E91110C94940E803219F013
S1131CF089508550C8F70895FB01DC0141505040DC
S1131D0088F08D9181341CF08B350CF4805E6591E4
S1131D1061341CF06B350CF4605E861B611171F349
S1131D20990B0895881BFCCF9927882708950E9452
S1131D30EF0CA59F900DB49F900DA49F800D911D55
S1131D40112408952F923F924F925F926F927F9247
S1131D508F929F92AF92BF92CF92DF92EF92FF92B7
S1131D600F931F93CF93DF93CDB7DEB7CA1BDB0B63
S1131D700FB6F894DEBF0FBECDBF09942A88398808
S1131D8048885F846E847D848C849B84AA84B9840F
S1131D90C884DF80EE80FD800C811B81AA81B9811B
S1131DA0CE0FD11D0FB6F894DEBF0FBECDBFED012F
S1091DB00895F894FFCF32
S1131DB66F6E006F666600202D2D3E204F4B0D0A78
S1131DC63E3A2000202D2D3E204552524F520D0AF8
S1131DD63E3A200075707300756D647200706F77FB
S1131DE665720050756D7065313A0D0A00202D2D0F
S1131DF63E2053746568740D0A3E3A2000000000C4
S10D1E0600F103D203E1032E0900EA
S9030000FC
